{
  "contractName": "NCrowdsale",
  "abi": [
    {
      "constant": true,
      "inputs": [],
      "name": "reward",
      "outputs": [
        {
          "name": "",
          "type": "address"
        }
      ],
      "payable": false,
      "stateMutability": "view",
      "type": "function"
    },
    {
      "constant": true,
      "inputs": [],
      "name": "endTime",
      "outputs": [
        {
          "name": "",
          "type": "uint256"
        }
      ],
      "payable": false,
      "stateMutability": "view",
      "type": "function"
    },
    {
      "constant": true,
      "inputs": [],
      "name": "tokensSold",
      "outputs": [
        {
          "name": "",
          "type": "uint256"
        }
      ],
      "payable": false,
      "stateMutability": "view",
      "type": "function"
    },
    {
      "constant": true,
      "inputs": [],
      "name": "wallet",
      "outputs": [
        {
          "name": "",
          "type": "address"
        }
      ],
      "payable": false,
      "stateMutability": "view",
      "type": "function"
    },
    {
      "constant": true,
      "inputs": [],
      "name": "startTime",
      "outputs": [
        {
          "name": "",
          "type": "uint256"
        }
      ],
      "payable": false,
      "stateMutability": "view",
      "type": "function"
    },
    {
      "constant": true,
      "inputs": [],
      "name": "owner",
      "outputs": [
        {
          "name": "",
          "type": "address"
        }
      ],
      "payable": false,
      "stateMutability": "view",
      "type": "function"
    },
    {
      "constant": true,
      "inputs": [],
      "name": "softCap",
      "outputs": [
        {
          "name": "",
          "type": "uint256"
        }
      ],
      "payable": false,
      "stateMutability": "view",
      "type": "function"
    },
    {
      "constant": true,
      "inputs": [],
      "name": "hardCap",
      "outputs": [
        {
          "name": "",
          "type": "uint256"
        }
      ],
      "payable": false,
      "stateMutability": "view",
      "type": "function"
    },
    {
      "inputs": [
        {
          "name": "_startTime",
          "type": "uint256"
        },
        {
          "name": "_endTime",
          "type": "uint256"
        },
        {
          "name": "_wallet",
          "type": "address"
        },
        {
          "name": "_token",
          "type": "address"
        },
        {
          "name": "_owner",
          "type": "address"
        }
      ],
      "payable": false,
      "stateMutability": "nonpayable",
      "type": "constructor"
    },
    {
      "payable": true,
      "stateMutability": "payable",
      "type": "fallback"
    },
    {
      "anonymous": false,
      "inputs": [
        {
          "indexed": true,
          "name": "purchaser",
          "type": "address"
        },
        {
          "indexed": true,
          "name": "beneficiary",
          "type": "address"
        },
        {
          "indexed": false,
          "name": "value",
          "type": "uint256"
        },
        {
          "indexed": false,
          "name": "amount",
          "type": "uint256"
        }
      ],
      "name": "TokenPurchase",
      "type": "event"
    },
    {
      "anonymous": false,
      "inputs": [
        {
          "indexed": true,
          "name": "receiver",
          "type": "address"
        },
        {
          "indexed": false,
          "name": "amount",
          "type": "uint256"
        }
      ],
      "name": "Refund",
      "type": "event"
    },
    {
      "constant": false,
      "inputs": [
        {
          "name": "beneficiary",
          "type": "address"
        }
      ],
      "name": "buyTokens",
      "outputs": [],
      "payable": true,
      "stateMutability": "payable",
      "type": "function"
    },
    {
      "constant": true,
      "inputs": [],
      "name": "hasEnded",
      "outputs": [
        {
          "name": "",
          "type": "bool"
        }
      ],
      "payable": false,
      "stateMutability": "view",
      "type": "function"
    },
    {
      "constant": false,
      "inputs": [],
      "name": "claimRefund",
      "outputs": [],
      "payable": false,
      "stateMutability": "nonpayable",
      "type": "function"
    },
    {
      "constant": true,
      "inputs": [
        {
          "name": "_owner",
          "type": "address"
        }
      ],
      "name": "balanceOf",
      "outputs": [
        {
          "name": "balance",
          "type": "uint256"
        }
      ],
      "payable": false,
      "stateMutability": "view",
      "type": "function"
    }
  ],
  "bytecode": "0x60806040526000600760006101000a81548160ff02191690831515021790555034801561002b57600080fd5b5060405160a080610fd2833981018060405281019080805190602001909291908051906020019092919080519060200190929190805190602001909291908051906020019092919050505042851015151561008557600080fd5b84841015151561009457600080fd5b600073ffffffffffffffffffffffffffffffffffffffff168373ffffffffffffffffffffffffffffffffffffffff16141515156100d057600080fd5b600073ffffffffffffffffffffffffffffffffffffffff168273ffffffffffffffffffffffffffffffffffffffff161415151561010c57600080fd5b600073ffffffffffffffffffffffffffffffffffffffff168173ffffffffffffffffffffffffffffffffffffffff161415151561014857600080fd5b846003819055508360048190555082600560006101000a81548173ffffffffffffffffffffffffffffffffffffffff021916908373ffffffffffffffffffffffffffffffffffffffff16021790555080600260006101000a81548173ffffffffffffffffffffffffffffffffffffffff021916908373ffffffffffffffffffffffffffffffffffffffff16021790555081600160006101000a81548173ffffffffffffffffffffffffffffffffffffffff021916908373ffffffffffffffffffffffffffffffffffffffff1602179055505050505050610da58061022d6000396000f3006080604052600436106100ba576000357c0100000000000000000000000000000000000000000000000000000000900463ffffffff168063228cb7331461014c5780633197cbb6146101a3578063518ab2a8146101ce578063521eb273146101f957806370a082311461025057806378e97925146102a75780638da5cb5b146102d2578063906a26e014610329578063b5545a3c14610354578063ec8ac4d81461036b578063ecb70fb7146103a1578063fb86a404146103d0575b600560009054906101000a900473ffffffffffffffffffffffffffffffffffffffff1673ffffffffffffffffffffffffffffffffffffffff163373ffffffffffffffffffffffffffffffffffffffff161415610140576101186103fb565b801561013057506a084595161401484a000000600654105b151561013b57600080fd5b61014a565b6101493361041f565b5b005b34801561015857600080fd5b506101616109ee565b604051808273ffffffffffffffffffffffffffffffffffffffff1673ffffffffffffffffffffffffffffffffffffffff16815260200191505060405180910390f35b3480156101af57600080fd5b506101b8610a14565b6040518082815260200191505060405180910390f35b3480156101da57600080fd5b506101e3610a1a565b6040518082815260200191505060405180910390f35b34801561020557600080fd5b5061020e610a20565b604051808273ffffffffffffffffffffffffffffffffffffffff1673ffffffffffffffffffffffffffffffffffffffff16815260200191505060405180910390f35b34801561025c57600080fd5b50610291600480360381019080803573ffffffffffffffffffffffffffffffffffffffff169060200190929190505050610a46565b6040518082815260200191505060405180910390f35b3480156102b357600080fd5b506102bc610a8e565b6040518082815260200191505060405180910390f35b3480156102de57600080fd5b506102e7610a94565b604051808273ffffffffffffffffffffffffffffffffffffffff1673ffffffffffffffffffffffffffffffffffffffff16815260200191505060405180910390f35b34801561033557600080fd5b5061033e610aba565b6040518082815260200191505060405180910390f35b34801561036057600080fd5b50610369610ac9565b005b61039f600480360381019080803573ffffffffffffffffffffffffffffffffffffffff16906020019092919050505061041f565b005b3480156103ad57600080fd5b506103b66103fb565b604051808215151515815260200191505060405180910390f35b3480156103dc57600080fd5b506103e5610c41565b6040518082815260200191505060405180910390f35b600060045442118061041a57506a52b7d2dcc80cd2e400000060065410155b905090565b600080600080600073ffffffffffffffffffffffffffffffffffffffff168573ffffffffffffffffffffffffffffffffffffffff161415151561046157600080fd5b610469610c50565b151561047457600080fd5b34935060009250610483610ca0565b91506104988285610cf690919063ffffffff16565b90506a52b7d2dcc80cd2e40000006104bb82600654610d2e90919063ffffffff16565b111561050e576104e16006546a52b7d2dcc80cd2e4000000610d4a90919063ffffffff16565b90506104f68282610d6390919063ffffffff16565b935061050b8434610d4a90919063ffffffff16565b92505b61052381600654610d2e90919063ffffffff16565b60068190555061057a846000808873ffffffffffffffffffffffffffffffffffffffff1673ffffffffffffffffffffffffffffffffffffffff16815260200190815260200160002054610d2e90919063ffffffff16565b6000808773ffffffffffffffffffffffffffffffffffffffff1673ffffffffffffffffffffffffffffffffffffffff16815260200190815260200160002081905550600160009054906101000a900473ffffffffffffffffffffffffffffffffffffffff1673ffffffffffffffffffffffffffffffffffffffff166323b872dd600260009054906101000a900473ffffffffffffffffffffffffffffffffffffffff1687846040518463ffffffff167c0100000000000000000000000000000000000000000000000000000000028152600401808473ffffffffffffffffffffffffffffffffffffffff1673ffffffffffffffffffffffffffffffffffffffff1681526020018373ffffffffffffffffffffffffffffffffffffffff1673ffffffffffffffffffffffffffffffffffffffff1681526020018281526020019350505050602060405180830381600087803b1580156106d757600080fd5b505af11580156106eb573d6000803e3d6000fd5b505050506040513d602081101561070157600080fd5b8101908080519060200190929190505050151561071a57fe5b8473ffffffffffffffffffffffffffffffffffffffff163373ffffffffffffffffffffffffffffffffffffffff167f623b3804fa71d67900d064613da8f94b9617215ee90799290593e1745087ad188684604051808381526020018281526020019250505060405180910390a3600560009054906101000a900473ffffffffffffffffffffffffffffffffffffffff1673ffffffffffffffffffffffffffffffffffffffff166108fc859081150290604051600060405180830381858888f193505050501580156107ef573d6000803e3d6000fd5b506a52b7d2dcc80cd2e400000060065414156108b457600160009054906101000a900473ffffffffffffffffffffffffffffffffffffffff1673ffffffffffffffffffffffffffffffffffffffff16633e0a322d6212750042016040518263ffffffff167c010000000000000000000000000000000000000000000000000000000002815260040180828152602001915050600060405180830381600087803b15801561089b57600080fd5b505af11580156108af573d6000803e3d6000fd5b505050505b600760009054906101000a900460ff161515610996576001600760006101000a81548160ff021916908315150217905550600160009054906101000a900473ffffffffffffffffffffffffffffffffffffffff1673ffffffffffffffffffffffffffffffffffffffff16633e0a322d62127500600454016040518263ffffffff167c010000000000000000000000000000000000000000000000000000000002815260040180828152602001915050600060405180830381600087803b15801561097d57600080fd5b505af1158015610991573d6000803e3d6000fd5b505050505b60008311156109e7573373ffffffffffffffffffffffffffffffffffffffff166108fc849081150290604051600060405180830381858888f193505050501580156109e5573d6000803e3d6000fd5b505b5050505050565b600160009054906101000a900473ffffffffffffffffffffffffffffffffffffffff1681565b60045481565b60065481565b600560009054906101000a900473ffffffffffffffffffffffffffffffffffffffff1681565b60008060008373ffffffffffffffffffffffffffffffffffffffff1673ffffffffffffffffffffffffffffffffffffffff168152602001908152602001600020549050919050565b60035481565b600260009054906101000a900473ffffffffffffffffffffffffffffffffffffffff1681565b6a084595161401484a00000081565b6000610ad36103fb565b1515610ade57600080fd5b6a084595161401484a000000600654101515610af957600080fd5b6000803373ffffffffffffffffffffffffffffffffffffffff1673ffffffffffffffffffffffffffffffffffffffff168152602001908152602001600020549050803073ffffffffffffffffffffffffffffffffffffffff1631101515610c3e5760008060003373ffffffffffffffffffffffffffffffffffffffff1673ffffffffffffffffffffffffffffffffffffffff168152602001908152602001600020819055506000811115610c3d573373ffffffffffffffffffffffffffffffffffffffff166108fc829081150290604051600060405180830381858888f19350505050158015610bed573d6000803e3d6000fd5b503373ffffffffffffffffffffffffffffffffffffffff167fbb28353e4598c3b9199101a66e0989549b659a59a54d2c27fbb183f1932c8e6d826040518082815260200191505060405180910390a25b5b50565b6a52b7d2dcc80cd2e400000081565b6000806000806003544210158015610c6a57506004544211155b9250600034141591506a52b7d2dcc80cd2e4000000600654109050828015610c8f5750815b8015610c985750805b935050505090565b600062093a8060035401421015610cbb576117709050610cf3565b6212750060035401421015610cd45761157c9050610cf3565b621baf8060035401421015610ced576114829050610cf3565b61138890505b90565b600080831415610d095760009050610d28565b8183029050818382811515610d1a57fe5b04141515610d2457fe5b8090505b92915050565b60008183019050828110151515610d4157fe5b80905092915050565b6000828211151515610d5857fe5b818303905092915050565b60008183811515610d7057fe5b049050929150505600a165627a7a723058202e799fc4e62667719d0716382fd2bbdf9cc2eb71ec102b329d635c124f7242ef0029",
  "source": "pragma solidity ^0.4.18;\n\nimport \"zeppelin-solidity/contracts/math/SafeMath.sol\";\n\ncontract token {\n  function transferFrom(address _from, address _to, uint256 _value) public returns (bool);\n  function setStartTime(uint _startTime) external;\n}\n\n/**\n * @title N Token Crowdsale\n */\ncontract NCrowdsale {\n  using SafeMath for uint256;\n\n  // Investor contributions\n  mapping(address => uint256) balances;\n\n  // The token being sold\n  token public reward;\n\n  // Owner of the token\n  address public owner;\n\n  // Start and end timestamps\n  uint public startTime;\n  uint public endTime;\n\n  // Address where funds are collected\n  address public wallet;\n\n  // Amount of tokens that were sold\n  uint256 public tokensSold;\n\n  // Soft cap in NEX tokens\n  uint256 constant public softCap = 10000000 * (10**18);\n\n  // Hard cap in NEX tokens\n  uint256 constant public hardCap = 100000000 * (10**18);\n\n  // Switched to true once token contract is notified of when to enable token transfers\n  bool private isStartTimeSet = false;\n\n  /**\n    * @dev Event for token purchase logging\n    * @param purchaser Address that paid for the tokens\n    * @param beneficiary Address that got the tokens\n    * @param value The amount that was paid (in wei)\n    * @param amount The amount of tokens that were bought\n    */\n  event TokenPurchase(address indexed purchaser, address indexed beneficiary, uint256 value, uint256 amount);\n\n  /**\n    * @dev Event for refund logging\n    * @param receiver The address that received the refund\n    * @param amount The amount that is being refunded (in wei)\n    */\n  event Refund(address indexed receiver, uint256 amount);\n\n  /**\n    * @param _startTime Unix timestamp for the start of the token sale\n    * @param _endTime Unix timestamp for the end of the token sale\n    * @param _wallet Ethereum address to which the invested funds are forwarded\n    * @param _token Address of the token that will be rewarded for the investors\n    * @param _owner Address of the owner of the smart contract who can execute restricted functions\n    */\n  constructor(uint256 _startTime, uint256 _endTime, address _wallet, address _token, address _owner) public {\n    require(_startTime >= now);\n    require(_endTime >= _startTime);\n    require(_wallet != address(0));\n    require(_token != address(0));\n    require(_owner != address(0));\n\n    startTime = _startTime;\n    endTime = _endTime;\n    wallet = _wallet;\n    owner = _owner;\n    reward = token(_token);\n  }\n\n  /**\n    * @dev Throws if called by any account other than the owner.\n    */\n  modifier onlyOwner() {\n    require(msg.sender == owner);\n    _;\n  }\n\n  /**\n    * @dev Fallback function that can be used to buy tokens. Or in case of the owner, return ether to allow refunds.\n    */\n  function() external payable {\n    if (msg.sender == wallet) {\n      require(hasEnded() && tokensSold < softCap);\n    } else {\n      buyTokens(msg.sender);\n    }\n  }\n\n  /**\n    * @dev Function for buying tokens\n    * @param beneficiary The address that should receive bought tokens\n    */\n  function buyTokens(address beneficiary) public payable {\n    require(beneficiary != address(0));\n    require(validPurchase());\n\n    uint256 weiAmount = msg.value;\n    uint256 returnToSender = 0;\n\n    // Retrieve the current token rate\n    uint256 rate = getRate();\n\n    // Calculate token amount to be transferred\n    uint256 tokens = weiAmount.mul(rate);\n\n    // Distribute only the remaining tokens if final contribution exceeds hard cap\n    if (tokensSold.add(tokens) > hardCap) {\n      tokens = hardCap.sub(tokensSold);\n      weiAmount = tokens.div(rate);\n      returnToSender = msg.value.sub(weiAmount);\n    }\n\n    // update state\n    tokensSold = tokensSold.add(tokens);\n\n    // update balance\n    balances[beneficiary] = balances[beneficiary].add(weiAmount);\n\n    assert(reward.transferFrom(owner, beneficiary, tokens));\n    emit TokenPurchase(msg.sender, beneficiary, weiAmount, tokens);\n\n    // Forward funds\n    wallet.transfer(weiAmount);\n\n    // Allow transfers 2 weeks after hard cap is reached\n    if (tokensSold == hardCap) {\n      reward.setStartTime(now + 2 weeks);\n    }\n\n    // Notify token contract about sale end time\n    if (!isStartTimeSet) {\n      isStartTimeSet = true;\n      reward.setStartTime(endTime + 2 weeks);\n    }\n\n    // Return funds that are over hard cap\n    if (returnToSender > 0) {\n      msg.sender.transfer(returnToSender);\n    }\n  }\n\n  /**\n    * @dev Internal function that is used to determine the current rate for token / ETH conversion\n    * @return The current token rate\n    */\n  function getRate() internal constant returns (uint256) {\n    if (now < (startTime + 1 weeks)) {\n      return 6000;\n    }\n\n    if (now < (startTime + 2 weeks)) {\n      return 5500;\n    }\n\n    if (now < (startTime + 3 weeks)) {\n      return 5250;\n    }\n\n    return 5000;\n  }\n\n  /**\n    * @dev Internal function that is used to check if the incoming purchase should be accepted.\n    * @return True if the transaction can buy tokens\n    */\n  function validPurchase() internal constant returns (bool) {\n    bool withinPeriod = now >= startTime && now <= endTime;\n    bool nonZeroPurchase = msg.value != 0;\n    bool hardCapNotReached = tokensSold < hardCap;\n    return withinPeriod && nonZeroPurchase && hardCapNotReached;\n  }\n\n  /**\n    * @return True if crowdsale event has ended\n    */\n  function hasEnded() public constant returns (bool) {\n    return now > endTime || tokensSold >= hardCap;\n  }\n\n  /**\n    * @dev Returns ether to token holders in case soft cap is not reached.\n    */\n  function claimRefund() external {\n    require(hasEnded());\n    require(tokensSold < softCap);\n\n    uint256 amount = balances[msg.sender];\n\n    if (address(this).balance >= amount) {\n      balances[msg.sender] = 0;\n      if (amount > 0) {\n        msg.sender.transfer(amount);\n        emit Refund(msg.sender, amount);\n      }\n    }\n  }\n\n  /**\n  * @dev Gets the balance of the specified address.\n  * @param _owner The address to query the the balance of.\n  * @return An uint256 representing the amount owned by the passed address.\n  */\n  function balanceOf(address _owner) external constant returns (uint256 balance) {\n    return balances[_owner];\n  }\n\n}\n",
  "sourcePath": "/Users/macbook/Documents/Projects/n-token-crowdsale/contracts/NCrowdsale.sol",
  "compiler": {
    "name": "solc",
    "version": "0.4.23+commit.124ca40d.Emscripten.clang"
  },
  "schemaVersion": "2.0.0",
  "updatedAt": "2018-05-02T09:27:21.781Z"
}